:020000020000FC
:040000000C94340028
:080038000C947D000C94820081
:040054000C94780090
:100068000FEF0DBF08E00EBF00E400937C000FE81F
:1000780000937A000DE005BD06E000936E000FEFD7
:1000880007BD0FE708BD01E003BF0FEF0AB904B9C8
:10009800F2E07894222788952030E9F300E0009375
:1000A8007A000E946000992788959F3FE9F70FE83A
:1000B80000937A002227EFCF122F0DE7180316942A
:1000C8000794012D0253302F0AE138031694079440
:1000D800412D1AE0119E3019532FE42FC895402D59
:1000E800E52FC895502D089520917800109179003A
:1000F800189529985BB9289A9395189528984BB91B
:04010800299A189583
:0A0200003F065B4F666D7D07FF6F40
:00000001FF
